:020000040800F2
:100000000000022079270008C9270008C927000836
:10001000C9270008C9270008C927000800000000F8
:10002000000000000000000000000000C9270008D8
:10003000C927000800000000C9270008791F000830
:10004000C9270008C9270008C9270008C9270008D0
:10005000C9270008C9270008C9270008C9270008C0
:10006000C9270008C9270008C9270008C9270008B0
:10007000C9270008C9270008C9270008C9270008A0
:10008000C9270008C9270008C9270008851F0008DC
:10009000951F0008C9270008A51F0008C9270008E8
:1000A000C9270008C9270008C9270008C927000870
:1000B000C9270008C9270008C9270008C927000860
:1000C000C9270008C9270008C9270008C927000850
:1000D000C9270008C9270008C9270008C927000840
:1000E000C51F0008C9270008C9270008C92700083C
:1000F000C9270008C9270008C9270008C927000820
:10010000C9270008C9270008C9270008C92700080F
:10011000C9270008C9270008B51F0008C92700081B
:10012000C9270008C9270008C9270008C9270008EF
:10013000C92700080000000000000000C9270008CF
:10014000C9270008C9270008C9270008C9270008CF
:10015000C9270008C9270008C9270008C9270008BF
:10016000C9270008C9270008C9270008C9270008AF
:10017000C9270008C9270008C92700080000000097
:1001800000000000C9270008000000000000000077
:10019000C92700080000000000000000C92700086F
:1001A000000000000000000000000000C927000857
:1001B000C9270008C9270008C9270008C92700085F
:0401C000C927000843
:1001D00010B5054C237833B9044B13B10448AFF381
:1001E00000800123237010BD70000020000000007B
:1001F0000C31000808B5034B1BB103490348AFF3AA
:10020000008008BD00000000740000200C310008D0
:10021000034613F8012B002AFBD1181A0138704746
:1002200001F0FF01102A2BDB10F0070F08D010F8A7
:10023000013B013A8B422DD010F0070F42B3F6D1AB
:10024000F0B441EA012141EA014122F007047FF0C4
:1002500000070023F0E80256083C85EA010586EA1B
:10026000010685FA47F5A3FA87F586FA47F6A5FA57
:1002700087F68EB9EED1F0BC01F0FF0102F0070263
:1002800032B110F8013B013A83EA010313B1F8D10E
:100290000020704701387047002D06BF35460338EF
:1002A000073815F0010F07D1013015F4807F02BF28
:1002B000013015F4C03F0130F0BC0138704700BF79
:1002C00053B94AB9002908BF00281CBF4FF0FF31BD
:1002D0004FF0FF3000F074B9ADF1080C6DE904CEB9
:1002E00000F006F8DDF804E0DDE9022304B0704711
:1002F0002DE9F047089D04468E46002B4DD18A42D9
:10030000944669D9B2FA82F252B101FA02F3C2F10B
:10031000200120FA01F10CFA02FC41EA030E94409C
:100320004FEA1C48210CBEFBF8F61FFA8CF708FBBD
:1003300016E341EA034306FB07F199420AD91CEB95
:10034000030306F1FF3080F01F81994240F21C81C7
:10035000023E63445B1AA4B2B3FBF8F008FB10330F
:1003600044EA034400FB07F7A7420AD91CEB040444
:1003700000F1FF3380F00A81A74240F20781644414
:10038000023840EA0640E41B00261DB1D440002399
:10039000C5E900433146BDE8F0878B4209D9002DFD
:1003A00000F0EF800026C5E9000130463146BDE887
:1003B000F087B3FA83F6002E4AD18B4202D38242F1
:1003C00000F2F980841A61EB030301209E46002DA0
:1003D000E0D0C5E9004EDDE702B9FFDEB2FA82F2F5
:1003E000002A40F09280A1EB0C014FEA1C471FFA53
:1003F0008CFE0126200CB1FBF7F307FB131140EA3A
:1004000001410EFB03F0884208D91CEB010103F106
:10041000FF3802D2884200F2CB804346091AA4B2C8
:10042000B1FBF7F007FB101144EA01440EFB00FE9C
:10043000A64508D91CEB040400F1FF3102D2A64501
:1004400000F2BB800846A4EB0E0440EA03409CE7A0
:10045000C6F12007B34022FA07FC4CEA030C20FA4D
:1004600007F401FA06F31C43F9404FEA1C4900FA6D
:1004700006F3B1FBF9F8200C1FFA8CFE09FB1811EA
:1004800040EA014108FB0EF0884202FA06F20BD95D
:100490001CEB010108F1FF3A80F08880884240F2AD
:1004A0008580A8F102086144091AA4B2B1FBF9F0F1
:1004B00009FB101144EA014100FB0EFE8E4508D9EC
:1004C0001CEB010100F1FF346CD28E456AD9023871
:1004D000614440EA0840A0FB0294A1EB0E01A14256
:1004E000C846A64656D353D05DB1B3EB080261EBC4
:1004F0000E0101FA07F722FA06F3F1401F43C5E99E
:10050000007100263146BDE8F087C2F12003D840D3
:100510000CFA02FC21FA03F3914001434FEA1C4715
:100520001FFA8CFEB3FBF7F007FB10360B0C43EA07
:10053000064300FB0EF69E4204FA02F408D91CEBB7
:10054000030300F1FF382FD29E422DD902386344B5
:100550009B1B89B2B3FBF7F607FB163341EA034155
:1005600006FB0EF38B4208D91CEB010106F1FF38A4
:1005700016D28B4214D9023E6144C91A46EA00469B
:1005800038E72E46284605E70646E3E61846F8E62D
:100590004B45A9D2B9EB020864EB0C0E0138A3E776
:1005A0004646EAE7204694E74046D1E7D0467BE757
:1005B000023B614432E7304609E76444023842E7CF
:1005C000704700BF10B504460E4B18784FF47A738D
:1005D000B3FBF0F30C4A1068B0FBF3F000F07CFCC6
:1005E00068B90F2C01D901200AE0002221464FF002
:1005F000FF3000F02DFC034B5C60002000E0012088
:1006000010BD00BF000000200800002008B50B4B03
:100610001A6842F400721A601A6842F480621A6022
:100620001A6842F480721A60032000F0FFFB002079
:10063000FFF7C8FF01F0C6FF002008BD003C0240E4
:10064000034A1168034B1B780B441360704700BFCB
:100650008C00002000000020014B1868704700BF8C
:100660008C000020002800F0A18038B5044690F8E6
:100670002030D3B12268136823F002031360FFF720
:10068000EBFF054623685A6812F0020F10D0FFF7FF
:10069000E3FF401B0A28F5D9636A43F40033636221
:1006A000052384F82030012038BD01F0E3FFE1E7A5
:1006B0001A6842F001021A60FFF7CEFF0546236870
:1006C0005A6812F0010F0DD1FFF7C6FF401B0A2830
:1006D000F5D9636A43F400336362052384F820305C
:1006E0000120E1E7227E012A3DD01A6822F0800233
:1006F0001A60637E012B3BD02268136823F040030D
:100700001360A37E012B39D02268136823F02003E5
:100710001360E37E012B37D02268136843F0100387
:100720001360237F012B35D02268136823F0080360
:100730001360637F012B33D02268136823F0040316
:100740001360A368E2681343226913436269134389
:100750006268013A21681343CB6100206062012383
:1007600084F82030A0E71A6842F080021A60C0E7DF
:100770002268136843F040031360C2E722681368DD
:1007800043F020031360C4E72268136823F01003CA
:100790001360C6E72268136843F008031360C8E7D4
:1007A0002268136843F004031360CAE7012070470E
:1007B00090F82030DBB2012B0AD090F82030DBB269
:1007C000022B05D0436A43F4802343620120704723
:1007D00030B5454BD3F8002242F00102C3F80022A5
:1007E000D3F8002222F47C52C3F80022D3F800226E
:1007F000486A42EA0022C3F800224A69012000FA4E
:1008000002F2D3F81C026FEA020C20EA0200C3F8DD
:100810001C02CB69C3B9344BD3F80C020CEA0000BC
:10082000C3F80C028C884869CD6844EA0544483016
:1008300043F830408C68088840EA04404C6904F171
:10084000480E03EBCE035860CB69012B1ED08B6999
:10085000002B33D12448D0F804320CEA0303C0F84B
:1008600004320B698BBB2048D0F814320CEA030326
:10087000C0F814320B6A012B2ED01B4AD2F800327A
:1008800023F00103C2F80032002030BD164BD3F82C
:100890000C021043C3F80C028C8848690D6844EAC6
:1008A0000544483043F8304088894C698D6840EAF7
:1008B0000540483403EBC4035860C8E70A48D0F841
:1008C00004321343C0F80432CBE70748D0F814329F
:1008D0001343C0F81432CDE70349D1F81C321A4350
:1008E000C1F81C22C9E700BF0064004070B504468F
:1008F00090F82050EDB2012D06D0436A43F4002356
:1009000043620125284670BD022380F8203002682A
:10091000136823F001031360FFF79EFE0646236869
:100920005B6813F0010F0CD0FFF796FE831B0A2BB8
:10093000F5D9636A43F400336362052384F82030F9
:10094000E0E700256562DDE790F820C05FFA8CFCE7
:10095000BCF1010F06D090F820C05FFA8CFCBCF10E
:10096000020F6FD130B40468A56815F0806F07D10D
:10097000A56815F0006F03D1A56815F0805F5BD006
:10098000A468C4F3016C012404FA0CF41C608B68A5
:10099000002B3ED10D68CB68046843EA45550CF145
:1009A00018031B01E55003680C690CF1180503EBF3
:1009B00005135C600B7D012B36D0D17993791B0434
:1009C00043EA0163517943EA01231479016823431F
:1009D00001EB0C11C1F88C31D17893781B0443EAF8
:1009E0000163517843EA0123117802680B4302EB5B
:1009F0000C12C2F8883102680CF1180C4FEA0C1C7A
:100A000052F80C3043F0010342F80C30002030BCA7
:100A100070474C6843EAC403CC68056823430CF173
:100A2000180424012B51BEE7036803EB0513596832
:100A300041F480715960C0E7436A43F40013436294
:100A40000120E4E7436A43F48023436201207047B6
:100A500090F820C05FFA8CFCBCF1010F07D090F831
:100A600020C05FFA8CFCBCF1020F40F0958030B4DE
:100A700051B90468E46814F0030F12D1436A43F4D7
:100A800000134362012075E001290AD1046824693A
:100A900014F0030F05D1436A43F4001343620120AD
:100AA00068E001F11B04240105682C5904F00404DA
:100AB0009460002C60D101F11B04240105682C59BD
:100AC000640D1460046801F11B0C4FEA0C1C54F80F
:100AD0000C40C4F34004D46004686444646804F0C7
:100AE0000F041461046864446468C4F307249461C7
:100AF000046864446468240C5461026802EB0112C7
:100B0000D2F8B8211A70026802EB0112D2F8B821AB
:100B1000120A5A70026802EB0112D2F8B821120CC4
:100B20009A70026802EB0112D2F8B821120EDA7044
:100B3000026802EB0112D2F8BC211A71026802EBC2
:100B40000112D2F8BC21120A5A71026802EB01129A
:100B5000D2F8BC21120C9A71026802EB0112D2F891
:100B6000BC21120EDA7179B90268D36843F0200310
:100B7000D360002030BC704701F11B0424010568DC
:100B80002C59E40854609DE70129F2D102681369E9
:100B900043F020031361ECE7436A43F4802343628C
:100BA0000120704790F82030DBB2012B0AD090F87A
:100BB0002030DBB2022B05D0436A43F4802343622A
:100BC0000120704702685369194351610020704742
:100BD000704770477047704770477047704770475D
:100BE00070472DE9F84F054603685C69D3F8048027
:100BF0009F68D3F80CB0D3F810A0D3F8189014F075
:100C000001063BD017F0010616D001229A6017F0BA
:100C1000020F08D117F0040F0CD117F0080606D008
:100C20004FF4805608E001F031FA002604E0FFF7A7
:100C3000CFFF01E04FF4006617F4807F0DD02B68E2
:100C40004FF480729A6017F4007F40F0868017F4AA
:100C5000806F00F0868046F4005617F4803F0DD078
:100C60002B684FF480329A6017F4003F40F0838085
:100C700017F4802F00F0838046F4004614F0080F2C
:100C800007D01BF0100F04D046F400762B6810221A
:100C9000DA6014F0040F02D01BF0080F79D114F0C1
:100CA000020F04D02B68DB6813F0030F78D114F027
:100CB000400F07D01AF0100F04D046F480662B685E
:100CC00010221A6114F0200F02D01AF0080F6BD115
:100CD00014F0100F04D02B681B6913F0030F6AD1B6
:100CE00014F4003F02D018F0100F68D114F4803FC4
:100CF00002D018F0080F69D114F4004F7AD018F020
:100D0000040F74D014F4807F04D019F0010F01D0C7
:100D100046F0010614F4007F04D019F0020F01D050
:100D200046F0020614F4806F04D019F0040F01D0CD
:100D300046F0040614F4006F59D019F0700956D02B
:100D4000B9F1400F65D058D8B9F1200F5ED0B9F194
:100D5000300F42D146F0200644E0284601F0B4F9B5
:100D60007BE717F4006F02D046F4804675E728460B
:100D7000FFF72FFF71E7284601F0C4F97EE717F46B
:100D8000002F02D046F4803678E72846FFF722FF8E
:100D900074E72B680822DA602846FFF71CFF7EE71D
:100DA000284601F0B9FB82E72B6808221A61284621
:100DB000FFF713FF8CE72846FFF70EFF90E72B683D
:100DC00010225A602846FFF709FF8FE72B68082298
:100DD0005A602846FFF703FF8EE7B9F1100F01D1E3
:100DE00046F008062A68936923F0700393612B6824
:100DF00004225A609EB9BDE8F88FB9F1500F0BD0AC
:100E0000B9F1600FEED146F48076EBE746F01006BC
:100E1000E8E746F04006E5E746F08006E2E76B6A61
:100E20001E436E622846FFF7DBFEE4E7074AD368FD
:100E300023F4E0631B041B0C000200F4E060034396
:100E400043F0BF6343F40033D360704700ED00E02C
:100E500000B5194BDB68C3F30223C3F1070CBCF1E7
:100E6000040F28BF4FF0040C03F1040EBEF1060F6F
:100E700018D9033B4FF0FF3E0EFA0CFC21EA0C019F
:100E800099400EFA03F322EA0303194300280BDB0F
:100E90000901C9B200F1604000F5614080F800131B
:100EA0005DF804FB0023E5E700F00F000901C9B27B
:100EB000024B1954F4E700BF00ED00E014ED00E030
:100EC00000F01F02400901239340024A42F82030FB
:100ED000704700BF00E100E00138B0F1807F0BD225
:100EE0004FF0E0235861054AF02182F823100020DA
:100EF000986107221A6170470120704700ED00E0F9
:100F0000042806D04FF0E022136923F00403136194
:100F100070474FF0E022136943F0040313617047F8
:100F2000704708B5FFF7FCFF08BD000000230F2B3A
:100F300000F2D280F0B583B03AE0062200E0002251
:100F4000AA4032430234654D45F82420644A1468AF
:100F50006FEA0C0224EA0C054E6816F4803F01D0BB
:100F60004CEA04055E4C2560646802EA04054E689C
:100F700016F4003F01D04CEA0405594C6560A468A2
:100F800002EA04054E6816F4801F01D04CEA0405FD
:100F9000534CA560E46822404D6815F4001F01D051
:100FA0004CEA04024E4CE26001330F2B00F29280B7
:100FB00001229A400C6804EA020C32EA0404F3D1DC
:100FC0004C68022C01D0122C10D1DD08083550F8E5
:100FD000257003F00704A6000F24B44027EA040E8E
:100FE0000C69B44044EA0E0440F8254006684FEA14
:100FF000430E032404FA0EF4E54326EA04064C6883
:1010000004F0030404FA0EF4344304604C68661ED2
:10101000012E03D9112C01D0122C0FD186682E403D
:10102000CC6804FA0EF434438460446824EA020273
:101030004C68C4F300149C4014434460C2681540DB
:101040008A6802FA0EF22A43C2604A6812F0805F90
:10105000AAD000220192234A546C44F48044546480
:10106000526C02F480420192019A9C08A51C1B4A12
:1010700052F8256003F0030295000F22AA4026EAE9
:101080000206194A90423FF45AAF02F5806290423C
:1010900016D002F58062904214D002F58062904230
:1010A00012D002F58062904210D002F58062904228
:1010B0000ED002F5806290423FF43FAF07223FE737
:1010C00001223DE702223BE7032239E7042237E70A
:1010D000052235E703B0F0BD704700BF003801407E
:1010E000003C014000380240000002400AB181612A
:1010F00070470904816170474369594041617047F5
:101100007047000008B5054B5B69034200D108BD7C
:10111000024B5861FFF7F4FFF9E700BF003C0140C4
:10112000002800F09A8070B50D4604464F4B1B68AE
:1011300003F00F038B4208D2CBB24C4A13701368F2
:1011400003F00F038B4240F08A80236813F0020FF4
:1011500017D013F0040F04D0454A936843F4E053CA
:101160009360236813F0080F04D0414A936843F456
:10117000604393603E4A936823F0F003A1680B43F9
:101180009360236813F0010F32D06368012B21D0E4
:101190009A1E012A25D9364A126812F0020F60D031
:1011A00033498A6822F0030213438B60FFF754FA35
:1011B00006462F4B9B6803F00C036268B3EB820F6B
:1011C00016D0FFF749FA801B41F288339842F0D9D4
:1011D000032041E0264A126812F4003FE0D10120CA
:1011E0003AE0234A126812F0007FD9D1012033E09F
:1011F0001E4B1B6803F00F03AB4207D9EAB21B4B2F
:101200001A701B6803F00F03AB422CD1236813F054
:10121000040F06D0164A936823F4E053E1680B43A9
:101220009360236813F0080F07D0114A936823F4E2
:101230006043216943EAC103936000F045F80C4B19
:101240009B68C3F303130B4AD35CD8400A4B186066
:101250000020FFF7B7F9002070BD01207047012082
:10126000FAE70120F8E70120F6E700BF003C024062
:10127000003802402431000808000020014B1868A3
:10128000704700BF0800002008B5FFF7F7FF044BC8
:101290009B68C3F38223034AD35CD84008BD00BFD8
:1012A000003802403431000808B5FFF7E7FF044B6F
:1012B0009B68C3F34233034AD35CD84008BD00BFE8
:1012C000003802403431000808B55C4B9B6803F0DD
:1012D0000C03082B07D00C2B5BD0042B01D05848F3
:1012E00008BD5848FCE7554B5A6802F03F025B685E
:1012F00013F4800F2AD0514B5968C1F3881C4FEA70
:101300004C11B1EB0C006EEB0E0E4FEA8E1343EA5C
:1013100090638101091A63EB0E03DB0043EA51730A
:10132000C90011EB0C0C43F10003590200234FEAF2
:101330004C2041EADC51FEF7C3FF404B5B68C3F32E
:10134000014301335B00B0FBF3F0C9E73B4B596845
:10135000C1F3881C4FEA4C11B1EB0C006EEB0E0E82
:101360004FEA8E1343EA90638101091A63EB0E037F
:10137000DB0043EA5173C90011EB0C0C43F100038D
:10138000990200234FEA8C2041EA9C51FEF798FF16
:10139000D3E72A4B5A6802F03F025B6813F4800FD0
:1013A00028D0264B5968C1F3881C4FEA4C11B1EB89
:1013B0000C006EEB0E0E4FEA8E1343EA9063810130
:1013C000091A63EB0E03DB0043EA5173C90011EB0A
:1013D0000C0C43F10003590200234FEA4C2041EA70
:1013E000DC51FEF76DFF154B5B68C3F30273B0FB76
:1013F000F3F075E7114B5968C1F3881C4FEA4C11A3
:10140000B1EB0C006EEB0E0E4FEA8E1343EA9063C5
:101410008101091A63EB0E03DB0043EA5173C90033
:1014200011EB0C0C43F10003990200234FEA8C20CE
:1014300041EA9C51FEF744FFD5E700BF0038024067
:101440000024F40000127A0070B582B004460368EC
:1014500013F0010F41D09A4B9B6803F00C03042B4F
:1014600032D0974B9B6803F00C03082B27D0944B8A
:101470009B6803F00C030C2B59D06368B3F5803FD5
:101480005BD0B3F5A02F5ED08D4B1A6822F480326A
:101490001A601A6822F480221A606368002B5CD0FC
:1014A000FFF7DAF80546864B1B6813F4003F14D1AA
:1014B000FFF7D2F8401B6428F5D903209FE1804B49
:1014C0005B6813F4800FD2D07D4B1B6813F4003F90
:1014D00003D06368002B00F08D81236813F0020FA6
:1014E00060D0774B9B6813F00C0F4AD0744B9B680D
:1014F00003F00C03082B3FD0714B9B6803F00C03E7
:101500000C2B69D0E368002B75D06E4B01221A605A
:10151000FFF7A2F805466A4B1B6813F0020F61D172
:10152000FFF79AF8401B0228F5D9032067E1644BC6
:101530005B6813F4800FA0D0C6E7614A136843F4D8
:1015400080331360A9E75E4B1A6842F480221A6068
:101550001A6842F480321A609FE7FFF77DF805466B
:10156000574B1B6813F4003FB7D0FFF775F8401BCB
:101570006428F5D9032042E1514B5B6813F4800FD6
:10158000BAD14F4B1B6813F0020F03D0E368012B55
:1015900040F032814A4A136823F0F803216943EA94
:1015A000C1031360236813F0080F49D06369002B4F
:1015B00033D0444B0122C3F8802EFFF74DF8054687
:1015C0003F4B5B6F13F0020F3AD1FFF745F8401B1A
:1015D0000228F5D9032012E1394B5B6813F4800F20
:1015E00090D1CEE7364A136823F0F803216943EA25
:1015F000C1031360D6E7334B00221A60FFF72CF8C3
:1016000005462F4B1B6813F0020FCBD0FFF724F8D1
:10161000401B0228F5D90320F1E02A4B0022C3F831
:10162000802EFFF719F80546254B5B6F13F0020F6C
:1016300006D0FFF711F8401B0228F5D90320DEE0A1
:10164000236813F0040F77D01D4B1B6C13F0805FE1
:1016500033D1002301931A4B1A6C42F080521A6462
:101660001B6C03F080530193019B0125164B1B68F3
:1016700013F4807F2AD0A368012B3BD0052B3FD0E9
:101680000F4B1A6F22F001021A671A6F22F0040240
:101690001A67A368002B3DD0FEF7DEFF0646084B15
:1016A0001B6F13F0020F46D1FEF7D6FF801B41F2ED
:1016B00088339842F3D90320A1E00025D6E700BF84
:1016C0000038024000004742007000404E4A136854
:1016D00043F480731360FEF7BFFF06464A4B1B6856
:1016E00013F4807FC7D1FEF7B7FF801B0228F5D91E
:1016F000032084E0454A136F43F001031367C8E7F2
:10170000424B1A6F42F004021A671A6F42F001024C
:101710001A67BEE7FEF7A0FF06463C4B1B6F13F0AF
:10172000020F08D0FEF798FF801B41F288339842E1
:10173000F3D9032063E0E5B9A369002B5ED0334AF7
:10174000926802F00C02082A5BD0022B17D0304BB3
:1017500000221A66FEF780FF04462C4B1B6813F02C
:10176000007F45D0FEF778FF001B0228F5D9032043
:1017700045E0264A136C23F080531364DCE7244BC6
:1017800000221A66FEF768FF0546204B1B6813F01F
:10179000007F06D0FEF760FF401B0228F5D903202A
:1017A0002DE0E369226A1343626A43EA8213A26A64
:1017B0005208013A43EA0243E26A43EA0263226BB7
:1017C00043EA0273114A5360114B01221A66FEF775
:1017D00043FF04460D4B1B6813F0007F06D1FEF754
:1017E0003BFF001B0228F5D9032008E0002006E09B
:1017F000002004E0012002E0012000E0002002B00F
:1018000070BD0120FBE700BF0070004000380240BF
:10181000000047420268D36843F00103D3600268C6
:10182000136843F00103136000207047704770474E
:101830007047704710B5044603681A6912F0020F2A
:1018400011D0DA6812F0020F0DD06FF002021A61A7
:101850000123037603689B6913F0030F70D0FFF731
:10186000E6FF0023237623681A6912F0040F12D0D2
:10187000DA6812F0040F0ED06FF004021A6102232E
:10188000237623689B6913F4407F5FD02046FFF7DF
:10189000CEFF0023237623681A6912F0080F12D0B6
:1018A000DA6812F0080F0ED06FF008021A610423F4
:1018B00023762368DB6913F0030F4ED02046FFF731
:1018C000B6FF0023237623681A6912F0100F12D096
:1018D000DA6812F0100F0ED06FF010021A610823B0
:1018E00023762368DB6913F4407F3DD02046FFF761
:1018F0009EFF0023237623681A6912F0010F03D09C
:10190000DA6812F0010F36D123681A6912F0800FDD
:1019100003D0DA6812F0800F34D123681A6912F00C
:10192000400F03D0DA6812F0400F32D123681A69F1
:1019300012F0200F03D0DA6812F0200F30D110BD62
:10194000FFF774FF2046FFF773FF8AE72046FFF793
:101950006DFF2046FFF76CFF9BE72046FFF766FF11
:101960002046FFF765FFACE72046FFF75FFF204604
:10197000FFF75EFFBDE76FF001021A61204600F03D
:1019800083FDC1E76FF080021A61204600F08BF8FA
:10199000C3E76FF040021A612046FFF74AFFC5E730
:1019A0006FF020021A61204600F07CF8C7E70000C3
:1019B00003682E4A904212D0B0F1804F0FD0A2F5AA
:1019C0007C4290420BD002F58062904207D002F533
:1019D0008062904203D002F57842904203D123F016
:1019E00070034A681343214A90422AD0B0F1804FD5
:1019F00027D0A2F57C42904223D002F5806290422B
:101A00001FD002F5806290421BD002F578429042CE
:101A100017D002F57052904213D002F580629042C6
:101A20000FD002F5806290420BD0A2F5983290421E
:101A300007D002F58062904203D002F580629042A6
:101A400003D123F44073CA68134303608B68C362F5
:101A50000B688362054B984203D003F5806398427C
:101A600001D10B690363012343617047000001400A
:101A7000B0B110B5044690F8393063B1022384F850
:101A80003930214651F8040BFFF792FF012384F807
:101A90003930002010BD80F8383000F02DFEEDE721
:101AA00001207047704770472DE9F84304460168EC
:101AB0000A6922F44052C36813430B610168CA6883
:101AC00022F4164222F00C02836800690343606925
:101AD0000343E06903431343CB6021684A6922F45E
:101AE0004072A36913434B61E369B3F5004F5ED0C5
:101AF0002368B54A934200F0108102F58062934258
:101B000000F00B81FFF7C0FB00EB800000EB8000D2
:101B10006568AD00B0FBF5F5AC4FA7FB05356D0969
:101B20002E01FFF7B1FB00EB800000EB8000656841
:101B3000AD00B0FBF5F5FFF7A7FB00EB800000EB75
:101B4000800063689B00B0FBF3F3A7FB03235B09F2
:101B50004FF0640808FB13531B013233A7FB032328
:101B60005B0903F0F003F518FFF78EFB00EB800034
:101B700000EB80006668B600B0FBF6F6FFF784FB6A
:101B800000EB800000EB800063689B00B0FBF3F08B
:101B9000A7FB0030400908FB106000013230A7FBB2
:101BA0000037C7F3431723682F449F6009E1236878
:101BB000854A93425AD002F58062934256D0FFF78D
:101BC00063FB00EB800000EB800065686D00B0FBFC
:101BD000F5F57E4FA7FB05356D094FEA0519FFF7AF
:101BE00053FB00EB800000EB800066687600B0FBE2
:101BF000F6F6FFF749FB00EB800000EB800065681C
:101C00006D00B0FBF5F5A7FB05356D094FF06408D5
:101C100008FB1565ED003235A7FB05356D096D0034
:101C200005F4F8754D44FFF72FFB00EB800000EB47
:101C3000800066687600B0FBF6F6FFF725FB00EB48
:101C4000800000EB800063685B00B0FBF3F3A7FB50
:101C500003235B0908FB1363DB003233A7FB033765
:101C6000C7F3421723682F449F60AAE0FFF71CFBCD
:101C700000EB800000EB800065686D00B0FBF5F5BF
:101C8000524FA7FB05356D094FEA0519FFF70CFB0D
:101C900000EB800000EB800066687600B0FBF6F693
:101CA000FFF702FB00EB800000EB800065686D0031
:101CB000B0FBF5F5A7FB05356D094FF0640808FB8F
:101CC0001565ED003235A7FB05356D096D0005F48E
:101CD000F8754D44FFF7E8FA00EB800000EB800058
:101CE00066687600B0FBF6F6FFF7DEFA00EB8000E0
:101CF00000EB800063685B00B0FBF3F3A7FB0323FA
:101D00005B0908FB1363DB003233A7FB0337C7F320
:101D1000421723682F449F6053E0FFF7C5FA00EB9A
:101D2000800000EB80006568AD00B0FBF5F5274F43
:101D3000A7FB05356D092E01FFF7B6FA00EB800011
:101D400000EB80006568AD00B0FBF5F5FFF7ACFA7D
:101D500000EB800000EB800063689B00B0FBF3F3B6
:101D6000A7FB03235B094FF0640808FB13531B0117
:101D70003233A7FB03235B0903F0F003F518FFF7E9
:101D800093FA00EB800000EB80006668B600B0FBC1
:101D9000F6F6FFF789FA00EB800000EB800063683D
:101DA0009B00B0FBF3F0A7FB0030400908FB10607C
:101DB00000013230A7FB0037C7F3431723682F44D5
:101DC0009F60BDE8F88300BF001001401F85EB5104
:101DD0002DE9F84305460F4616469946DDF8208062
:101DE0002C68246837EA04030CBF4FF0010C4FF055
:101DF000000CB4451FD1B8F1FF3FF1D0B8F1000F8E
:101E000005D0FEF729FCA0EB09004045E8D92A6877
:101E1000D36823F4D073D3602A68536923F0010395
:101E20005361202385F8393085F83A30002385F84E
:101E30003830032000E00020BDE8F88358B310B527
:101E4000044690F839300BB3242384F839302268E3
:101E5000D36823F40053D3602046FFF725FE2268A1
:101E6000136923F4904313612268536923F02A0312
:101E700053612268D36843F40053D3600020E063C9
:101E8000202384F8393084F83A3010BD80F8383097
:101E900000F0B6FBD8E7012070472DE9F04182B091
:101EA0001E4690F83930DBB2202B55D104460D4642
:101EB0009046002954D0002A54D090F83830012B95
:101EC00052D0012380F838300023C363212380F8E7
:101ED0003930FEF7C1FB0746A4F82480A4F8268019
:101EE00010E000963B46002280212046FFF770FF5D
:101EF00000283BD12B882268C3F308035360236971
:101F0000CBB90235E38C9BB2BBB1E28C92B2013A01
:101F100092B2E284A368B3F5805FE2D000963B46BC
:101F2000002280212046FFF753FF08BB15F8012B44
:101F300023685A60E6E70135E4E700963B46002255
:101F400040212046FFF744FFA0B9202384F8393010
:101F5000002384F8383000E0022002B0BDE8F081B0
:101F60000120FAE70120F8E70220F6E70320F4E772
:101F70000320F2E70320F0E708B5FEF761FBFEF768
:101F8000D0FF08BD08B50248FEF72BFE08BD00BF14
:101F9000D400002008B50248FEF723FE08BD00BFAC
:101FA000D400002008B50248FEF71BFE08BD00BFA4
:101FB000D400002008B50248FFF73CFC08BD00BF74
:101FC000FC00002008B50448FFF724FC4FF4005043
:101FD000FFF798F808BD00BFFC00002070B588B07E
:101FE00000240094244B1A6B42F001021A631A6B0E
:101FF00002F001020092009A01941A6B42F004026E
:102000001A631A6B02F004020192019A02941A6B8D
:1020100042F002021A631B6B03F002030293029B5D
:102020002023039301250495059403A91348FEF783
:102030007DFF4FF45073039304950594104E03A94C
:102040003046FEF773FF4FF48073039304950594B5
:1020500003A90C48FEF76AFF4FF4005303930A4BA1
:102060000493059403A93046FEF760FF2820FEF78D
:1020700027FF08B070BD00BF0038024000000240DA
:1020800000080240000402400000211010B58EB08C
:102090000DF1040C0A4C0FCCACE80F0094E80700DB
:1020A000ACE803008CF8002001A8FEF7B1F84FF06F
:1020B000FF3382B201A90348FFF7EFFE0EB010BD57
:1020C0003C3100089000002010B58EB00DF1040CDA
:1020D0000A4C0FCCACE80F0094E80700ACE8030012
:1020E0008CF8002001A8FEF793F84FF0FF3382B27E
:1020F00001A90348FFF7D1FE0EB010BD583100080A
:102100009000002010B58EB00DF1040C0A4C0FCCDD
:10211000ACE80F0094E80700ACE803008CF800205E
:1021200001A8FEF775F84FF0FF3382B201A903480A
:10213000FFF7B3FE0EB010BD743100089000002010
:1021400010B5013803281BD8DFE800F0021B344D1E
:10215000314C01224FF400712046FEF7C7FF0022E8
:102160004FF480712046FEF7C1FF00224FF48071CA
:102170002A48FEF7BBFF002240212046FEF7B6FFAB
:1021800010BD254C00224FF400712046FEF7AEFF33
:1021900001224FF480712046FEF7A8FF00224FF481
:1021A00080711E48FEF7A2FF002240212046FEF764
:1021B0009DFFE5E7184C00224FF400712046FEF722
:1021C00095FF00224FF480712046FEF78FFF012219
:1021D0004FF480711148FEF789FF0022402120460C
:1021E000FEF784FFCCE70C4C00224FF40071204630
:1021F000FEF77CFF00224FF480712046FEF776FF49
:1022000000224FF480710548FEF770FF0122402143
:102210002046FEF76BFFB3E70008024000040240CF
:10222000FEE7000010B592B0012305934FF4803310
:10223000069302230B934FF480030C93542833D05E
:10224000782843D032282DD104230D9332230E93C6
:1022500002230F93109311930F22009201930023F6
:1022600002934FF4805203920493012405A8FFF7D0
:10227000EBF800283FD121466846FEF751FF0028C1
:102280003BD1FEF7FBFF1E4BA3FB00308009FEF79E
:1022900023FE0420FEF734FE002211464FF0FF30EB
:1022A000FEF7D6FD12B010BD04230D9354230E93F8
:1022B00002240F94109411940F230093019400238F
:1022C00002934FF4805203920493CFE704230D93BB
:1022D00078230E9302230F93109311930F220092F1
:1022E0000193002302934FF4A05303934FF48053C0
:1022F00004930324BAE7FFF793FFFFF791FF00BFB2
:10230000D34D621000B589B00123069340F25D639E
:102310000293002304930593104A92F8403001334E
:10232000DBB282F840308DF80330042B0ED0202130
:102330000B48FEF7E1FE01AB0DF1030202A90948CB
:10234000FEF702FB38B909B05DF804FB1346002222
:1023500083F84020EBE7FFF763FF00BF9000002009
:1023600000000240D400002000B58BB0012208928A
:102370000023059304930093019302930393069320
:10238000079269460448FEF713FA10B90BB05DF8DE
:1023900004FBFFF745FF00BFD400002008B5084844
:1023A000084BC36641F28733036742F20F738367BA
:1023B0006C30FFF75DFB00B908BDFFF731FF00BFD0
:1023C000900000200010004008B50948094B036048
:1023D0004FF4E133436000238360C3600361836192
:1023E0000C234361FFF72AFD00B908BDFFF718FF72
:1023F000900000200044004008B51048104B436492
:102400000023C364012280F85D2080F85F2080F8FB
:102410005E3080F8603080F85C3080F861300522F2
:10242000826403654FF4E022426583654430FEF721
:1024300019F900B908BDFFF7F3FE00BF90000020B6
:102440000064004008B5FEF7E1F83220FFF7EAFE2D
:10245000FFF7C4FDFFF7B8FFFFF7A0FFFFF7CCFFC2
:10246000FFF782FF40F203410648FEF79BFB08B1ED
:10247000FFF7D6FE0348FEF739FA00B9FEE7FFF78B
:10248000CFFE00BFD400002000B589B0134B93F8F5
:10249000A830042B0AD0FFF735FF104A92F8A83075
:1024A000013382F8A83009B05DF804FB02230693DB
:1024B00040F25162029200220492059301AB0DF1A9
:1024C000030202A90648FEF73FFA20B9034B002297
:1024D00083F8A820E7E7FFF7A3FE00BF90000020E5
:1024E000D400002000B589B04CF6AB53ADF80030F5
:1024F00002230693029000230493059301AB6A46DE
:1025000002A90448FEF720FA10B909B05DF804FBEF
:10251000FFF786FED400002000B591B00EAB254A2F
:102520000021FEF795FAD8B9234BD3F8AC0040F25E
:102530005D63984216D040F25163984222D040F237
:102540005163984226D001A8FDF762FE4FF0FF3399
:1025500082B201A91848FFF7A0FC11B05DF804FB96
:10256000FFF75EFE144BD3F8B830002BE3D19DF893
:102570003800FFF7E5FD9DF83820104901A800F06C
:1025800049F9E0E70C4BD3F8B830012BD7D1FFF76E
:10259000A9FFE2E7084BD3F8B830002BD3D19DF860
:1025A00038209DF8393043EA0222054901A800F09D
:1025B00031F9C8E73C01002090000020903100086C
:1025C000AC31000808B50320FEF730FC0B4A536A13
:1025D00043F4E0235362002211466FF00B00FEF734
:1025E00037FC002211466FF00A00FEF731FC002292
:1025F00011466FF00900FEF72BFC08BD00ED00E06E
:1026000030B589B000240194184B1A6C42F40032A2
:102610001A641A6C02F400320192019A02941A6B45
:1026200042F001021A631B6B03F001030293029B49
:1026300004230393022304930123059306940723A1
:1026400007930B4D03A92846FEF770FC082303935C
:1026500003A92846FEF76AFC2620FEF731FC224635
:102660000F212620FEF7F4FB09B030BD00380240F0
:102670000000024010B586B0002400941C4B1A6C78
:1026800042F000721A641B6C03F000730093009B0D
:102690004FF4C05301930223029303940323049342
:1026A0000923059301A91348FEF740FC22460F2198
:1026B0001320FEF7CDFB22460F211420FEF7C8FBA6
:1026C00022460F211520FEF7C3FB22460F211620BC
:1026D000FEF7BEFB1320FEF7F3FB1420FEF7F0FB22
:1026E0001520FEF7EDFB1620FEF7EAFB06B010BD45
:1026F000003802400000024010B582B0002401946E
:10270000094B1A6C42F010021A641B6C03F01003A0
:102710000193019B3620FEF7D3FB22460F21362082
:10272000FEF796FB02B010BD003802400F49D1F809
:10273000883043F47003C1F888300D4B1A6842F0BA
:1027400001021A60002098601A6822F0847222F454
:1027500080321A60074A5A601A6822F480221A608E
:10276000D8604FF000638B60704700BF00ED00E061
:102770000038024010300024DFF834D0002103E09C
:102780000C4B5B58435004310B480C4B42189A4297
:10279000F6D30B4A02E0002342F8043B094B9A426D
:1027A000F9D3FFF7C3FF00F011F8FFF74BFE7047B6
:1027B0000000022008320008000000207000002005
:1027C000700000206C010020FEE7000070B50D4D88
:1027D0000D4C641BA4100026A64209D10B4D0C4CD5
:1027E00000F094FC641BA4100026A64205D170BD25
:1027F00055F8043B98470136EEE755F8043B9847F7
:102800000136F2E70032000800320008003200080A
:10281000043200080EB400B59CB01DAB02900690C7
:102820006FF00041094807910491094953F8042BBE
:1028300005910068019302A900F068F8029B00224C
:102840001A701CB05DF804EB03B070470C00002058
:102850000802FFFF2DE9F0478E689E4282460C4633
:1028600090461F4638D88A8912F4906F32D0256876
:102870000969A5EB0109656905EB450505EBD5750A
:1028800001334B446D109D4238BF1D46530531D571
:10289000294600F063FB064650B90C23CAF8003005
:1028A000A38943F04003A3814FF0FF30BDE8F087D8
:1028B00021694A4600F0BEFAA38923F4906343F0ED
:1028C0008003A381266165614E44A5EB090526605E
:1028D000A5603E46BE4200D93E462068324641468B
:1028E00000F0B6FAA3689B1BA360236833442360FF
:1028F0000020DBE72A4600F0A5FB06460028E1D1D0
:102900002169504600F0BEFAC7E700002DE9F04FFC
:1029100098468B891B069DB007460D4614460ED57A
:102920000B6963B9402100F019FB2860286120B9C8
:102930000C233B604FF0FF30D1E040236B6100235C
:10294000099320238DF82930CDF80C803023DFF84F
:10295000A8818DF82A304FF0010923469A4613F8D2
:10296000012B0AB1252AF9D1BAEB040B0BD05B4637
:10297000224629463846FFF76DFF013000F0AA8055
:10298000099A5A4409929AF80030002B00F0A2806C
:1029900000234FF0FF32CDE905230AF1010A049329
:1029A00007938DF853301A935446052214F8011BEF
:1029B0005148FDF735FC049AD8B9D00644BF20230E
:1029C0008DF85330110744BF2B238DF853309AF8FC
:1029D00000302A2B15D0079A544600204FF00A0CDD
:1029E000214611F8013B303B092B4ED9B0B107927B
:1029F00014E0A0EB080309FA03F313430493A2467F
:102A0000D2E7039B191D1B680391002BBBBF5B42E0
:102A100042F0020207930793B8BF049223782E2B4B
:102A20000CD163782A2B35D1039B1A1D1B680392A6
:102A3000002BB8BF4FF0FF3302340593DFF8C8A076
:102A4000217803225046FDF7EBFB40B14023A0EB79
:102A50000A0003FA00F0049B03430134049314F8C2
:102A6000011B26488DF828100622FDF7D9FB002807
:102A700038D0234B1BBB039B073323F007030833DA
:102A80000393099B3344099367E70CFB02320C461E
:102A90000120A5E700230134059319464FF00A0CE5
:102AA000204610F8012B303A092A03D9002BC5D053
:102AB0000591C3E70CFB012104460123F0E703ABBA
:102AC00000932A460F4B04A93846AFF30080421CFE
:102AD0000646D6D1AB895B063FF52CAF09981DB0F1
:102AE000BDE8F08F03AB00932A46064B04A9384695
:102AF00000F07AF8EBE700BFC3310008CD310008E1
:102B00000000000055280008C93100082DE9F047F1
:102B1000164699468A680B69DDF820809342B8BF53
:102B20001346336091F8432007460C460AB101333F
:102B300033602368990642BF3368023333602568E7
:102B400015F0060506D104F1190AE36832689B1AEC
:102B5000AB4226DC94F84320131E226818BF0123E1
:102B600092062BD404F1430249463846C04701304F
:102B70001ED02368E568326803F00603042B08BF03
:102B8000AD1AA36822690CBF25EAE57500259342BA
:102B9000C4BF9B1AED1800261A34B5421AD1002082
:102BA00008E00123524649463846C047013003D168
:102BB0004FF0FF30BDE8F0870135C6E7E1185A1C39
:102BC000302081F84300224494F8451082F84310E5
:102BD0000233C7E70123224649463846C047013041
:102BE000E6D00136D9E700002DE9FF470F7E0C9DA6
:102BF000782F914680460C469A4601F1430207D849
:102C0000622F0AD8002F00F0D880582F00F0A38040
:102C100004F1420584F842703AE0A7F16303152BF2
:102C2000F6D801A151F823F0812C0008952C00085A
:102C3000112C0008112C0008112C0008112C000880
:102C4000952C0008112C0008112C0008112C0008EC
:102C5000112C0008A12D0008C52C0008832D0008A8
:102C6000112C0008112C0008C32D0008112C00089D
:102C7000C52C0008112C0008112C00088B2D000811
:102C80002B681A1D1B682A6004F1420584F8423043
:102C90000123A3E020682968060601F104030AD590
:102CA0000E682B60002E03DA2D23764284F8433021
:102CB0005E480A2319E00E682B6010F0400F18BF21
:102CC00036B2EFE72B682068191D2960010601D58F
:102CD0001E6802E04606FBD51E8854486F2F0CBFC5
:102CE00008230A23002184F843106568A560002D9D
:102CF000A2BF216821F0040121600EB9002D4DD042
:102D00001546B6FBF3F103FB1167C75D05F8017DBE
:102D10003746BB420E46F4D9082B0BD12368DE0799
:102D200008D5236961689942DEBF302305F8013C6C
:102D300005F1FF35521B2261CDF800A04B4603AAD6
:102D400021464046FFF7E2FE01304CD14FF0FF3004
:102D500004B0BDE8F087354881F8457029682368DC
:102D600051F8046B29601D0614D5DF0744BF43F0FA
:102D7000200323601EB9236823F02003236010235F
:102D8000B0E7236843F0200323607823284884F8C1
:102D90004530E3E7590648BFB6B2E6E71546BBE75C
:102DA0002B6826686169181D286035061B6801D5E7
:102DB000196002E07006FBD51980002323611546D7
:102DC000BAE72B681A1D2A601D6862680021284630
:102DD000FDF726FA08B1401B606063682361002399
:102DE00084F84330A8E723692A4649464046D0473D
:102DF0000130ABD023689B0713D4E068039B984253
:102E0000B8BF1846A4E70123324649464046D0479A
:102E100001309BD00135E36803995B1AAB42F2DCC9
:102E2000EBE7002504F11906F5E700BFD4310008EF
:102E3000E53100080A44914200F1FF3300D17047A8
:102E400010B511F8014B03F8014F9142F9D110BDB3
:102E5000884210B501EB020402D98442234607D808
:102E6000431EA14208D011F8012B03F8012FF8E707
:102E7000024401468A4200D110BD13F8014D02F808
:102E8000014DF7E737B5002944D051F8043C0190D3
:102E9000002BA1F10404B8BFE41800F013F91E4A96
:102EA0000198136833B96360146003B0BDE8304023
:102EB00000F00EB9A34208D9256861198B4201BF01
:102EC00019685B6849192160EDE71A465B680BB128
:102ED000A342FAD911685518A5420BD124682144A0
:102EE0005418A3421160E0D11C685B685360214410
:102EF0001160DAE702D90C230360D6E7256861196F
:102F00008B4204BF19685B68636004BF4919216084
:102F10005460CAE703B030BD5801002070B50E4EB2
:102F20000C463168054611B900F0BCF83060214606
:102F3000284600F0B7F8431C0AD0C41C24F0030450
:102F4000A04207D0211A284600F0ACF8013001D188
:102F50004FF0FF34204670BD5C0100202DE9F041A8
:102F6000CD1C25F0030508350C2D38BF0C25002D90
:102F7000074601DBA94205D90C233B6000263046F9
:102F8000BDE8F0812E4E00F09DF833681C4634BB3E
:102F900029463846FFF7C2FF431C04464DD134682A
:102FA0002646002E40D123683146384604EB0308FC
:102FB00000F078F880453AD1216803356D1A25F084
:102FC000030508350C2D38BF0C2529463846FFF778
:102FD000A5FF01302BD023682B4423600EE022682C
:102FE000521B1ED40B2A16D96119A342256018BFA3
:102FF0005960636808BF316062514B60384604F124
:103000000B0600F065F826F00706231DF21AB6D06D
:103010009B1BA350B3E76268A3420CBF32605A60A7
:10302000ECE723466468B2E734467668B9E70C23D8
:103030003B60384600F04CF8A1E72560DEE700BFB2
:10304000580100202DE9F041804614460E4621B972
:10305000BDE8F0411146FFF781BF2AB9FFF712FF23
:1030600025462846BDE8F08100F038F8844207463E
:1030700002D8B4EB500F12D821464046FFF76EFF3E
:1030800005460028EDD0BC422246314628BF3A46CC
:10309000FFF7D0FE31464046FFF7F4FEE1E7354644
:1030A000DFE7000038B5064D0023044608462B60D4
:1030B00000F01EF8431C02D12B6803B1236038BD19
:1030C00060010020014800F011B800BF6401002039
:1030D000014800F00CB800BF6401002051F8043C26
:1030E000181F002BBCBF0B58C018704770477047A3
:1030F000044A1168034609B9034911601068034482
:10310000136070476801002070010020F8B500BF0F
:10311000F8BC08BC9E467047F8B500BFF8BC08BCB8
:043120009E46704710
:103124000000000000000000010203040607080973
:1031340000000000010203044D657373616765209C
:103144005472616E736D69747465643A4D300D0A1E
:10315400000000004D657373616765205472616EF1
:10316400736D69747465643A4D310D0A0000000092
:103174004D657373616765205472616E736D697414
:103184007465643A4D320D0A000000004D65737396
:10319400616765205265636569766564203A20231A
:1031A40025780D0A000000005265706C7920526584
:1031B400636569766564203A202523580D0A002347
:1031C4002D302B2000686C4C00656667454647002F
:1031D4003031323334353637383941424344454649
:1031E40000303132333435363738396162636465DF
:0431F4006600000071
:0831F800F8D0FF7F0100000088
:04320000F5010008CC
:04320400D1010008EC
:1032080001000000100000000024F400100000205D
:1032180000000000000000000000000000000000A6
:103228000000000000000000000000000000000096
:103238000000000000000000000000000000000086
:103248000000000000000000000000000000000076
:103258000000000000000000000000000000000066
:103268000000000000000000000000000000000056
:04000005080027794F
:00000001FF
